:1000000002C100002EC100002CC100002AC1000066
:1000100028C1000026C1000024C1000022C1000048
:1000200020C100001EC100001CC100001AC1000058
:1000300018C1000016C1000014C1000012C1000068
:1000400010C100000EC100000CC100000AC1000078
:1000500008C1000006C1000004C100008FC40000F8
:1000600000C1000055C400002AC40000FAC000000E
:10007000F8C00000F6C00000F4C00000F2C00000AC
:10008000F0C00000EEC00000ECC00000EAC00000BC
:10009000E8C00000E6C00000E4C00000E2C00000CC
:1000A000E0C00000DEC00000DCC00000DAC00000DC
:1000B000D8C00000D6C00000D4C00000D2C00000EC
:1000C000D0C00000CEC00000CCC00000CAC00000FC
:1000D000C8C00000C6C00000C4C00000C2C000000C
:1000E000C0C0000000002100240027002A002D00CD
:1000F0003000330001010000040107010A01000083
:100100002200250028002B002E00310034000201BF
:100110000000050108010B0100002000230026005B
:1001200029002C002F00320000010000030106010D
:10013000090105050505070508080808020202026D
:100140000A0A080804040404010101010101010173
:100150000303030303030303040707070C0C0C0C3E
:100160000C0C0C0C02020202060606060606060627
:100170000B0B0B0B0B0B0B0B0102102020080810B4
:100180002040102040800201020108040201010207
:1001900004081020408080402010080402018004E0
:1001A000020180402010080402010804020101023B
:1001B0000408102040800102040810204080000044
:1001C0000A0B02090C0D0E080703040100000000D1
:1001D000000000000000000000000000000000001F
:1001E00000000000000000000000121110000000DC
:1001F00000000000000000000000000000000000FF
:1002000000000000080511241FBECFEFD1E2DEBFC1
:10021000CDBF00E00CBF12E0A0E0B2E0E8E0F2E108
:1002200000E00BBF02C007900D92AE35B107D9F7C1
:1002300023E0AEE5B2E001C01D92A537B207E1F7B9
:1002400011E0C3E0D1E000E005C021970109802F53
:10025000FE01D0D7C230D10780E00807B1F765D4DE
:10026000D1C7CECE96E0899FD0011124AA5FBC4FA2
:1002700090967C936E935F9791E091969C93919763
:10028000E0917303F091740390917203992339F014
:10029000309751F0811108C0809122031994309752
:1002A00019F05C968C91FACF0895CF92DF92EF927D
:1002B000FF920F931F9396E0899FF0011124EA5F4C
:1002C000FC4F11A2278D30A12130310549F178F082
:1002D0002230310509F44FC02330310509F450C0F4
:1002E0001F910F91FF90EF90DF90CF9008956623BC
:1002F000B9F361E070E0B6DF2FB7F8948091650242
:1003000090916602A0916702B09168022FBF80931E
:100310005E0390935F03A0936003B0936103E0CF0B
:100320009FB7F894C0906502D0906602E090670293
:10033000F09068029FBF00915E0310915F032091CF
:10034000600330916103C01AD10AE20AF30A0091F6
:1003500070031091710330E020E00C151D052E058F
:100360003F0548F462E070E01F910F91FF90EF901D
:10037000DF90CF9077CF6111B3CF63E070E0F4CF1F
:1003800070E060E0F1CFAF92BF92CF92DF92EF9238
:10039000FF920F931F93CF93DF936C017B018B012F
:1003A000040F151FEB015E01AE18BF08C017D1077F
:1003B00059F06991D601ED91FC910190F081E02D09
:1003C000C6011995892B79F7C501DF91CF911F914E
:1003D0000F91FF90EF90DF90CF90BF90AF90089576
:1003E000FC01538D448D252F30E0842F90E0821B3B
:1003F000930B541710F0CF96089501970895FC01C0
:10040000918D828D981761F0A28DAE0FBF2FB11D17
:100410005D968C91928D9F5F9F73928F90E008956F
:100420008FEF9FEF0895FC01918D828D981731F029
:10043000828DE80FF11D858D90E008958FEF9FEF7D
:100440000895FC01918D228D892F90E0805C9F4F53
:10045000821B91098F739927089589E692E0F1DF55
:1004600021E0892B09F420E0822F0895FC01A48D5E
:10047000A80FB92FB11DA35ABF4F2C91848D90E0C6
:1004800001968F739927848FA689B7892C93A089A9
:10049000B1898C91837080648C93938D848D981333
:1004A00006C00288F389E02D80818F7D80830895C6
:1004B000EF92FF920F931F93CF93DF93EC0181E0B4
:1004C000888F9B8D8C8D98131AC0E889F98980815B
:1004D00085FF15C09FB7F894EE89FF896083E8898E
:1004E000F98980818370806480839FBF81E090E080
:1004F000DF91CF911F910F91FF90EF900895F62E0D
:100500000B8D10E00F5F1F4F0F731127E02E8C8DA6
:100510008E110BC00FB607FCFACFE889F9898081EC
:1005200085FFF5CFCE01A2DFF2CFEB8DEC0FFD2FD3
:10053000F11DE35AFF4FF0829FB7F8940B8FEA89C1
:10054000FB8980818062D0CFCF93DF93EC01888DCF
:100550008823B1F0AA89BB89E889F9898C9185FD46
:1005600003C0808186FD0CC00FB607FCF7CF8C91CD
:1005700085FFF2CF808185FFEDCFCE0177DFEACF17
:10058000DF91CF91089580E090E0892B21F065DF25
:1005900081110E94000080E090E0892B49F080E00A
:1005A00090E0892B29F00E94000081110E94000038
:1005B00080E090E0892B49F080E090E0892B29F0E1
:1005C0000E94000081110E94000080E090E0892BD1
:1005D00049F080E090E0892B29F00E940000811111
:1005E0000C94000008958150823108F059C0E82F22
:1005F000F0E08827E250FD4F8F4FFCC51E03220319
:10060000100316031A03500325032B032F0335038E
:1006100039033D034303470350034B035103550381
:10062000809180008F778093800008958091800072
:100630008F7DF9CF80918000877FF5CF84B58F774C
:1006400084BD089584B58F7DFBCF8091B0008F77F6
:100650008093B00008958091B0008F7DF9CF809194
:1006600090008F77809390000895809190008F7D07
:10067000F9CF80919000877FF5CF8091A0008F7790
:100680008093A00008958091A0008F7DF9CF809184
:10069000A000877FF5CF809120018F778093200184
:1006A0000895809120018F7DF9CF80912001877F6F
:1006B000F5CFCF93DF93282F30E0F901E254FE4FBE
:1006C0008491F901E858FE4FD491F901EE5CFE4F98
:1006D000C491CC2399F0811186DFEC2FF0E0EE0F6E
:1006E000FF1FE85EFE4FA591B491EC91ED2381E0F0
:1006F00090E009F480E0DF91CF91089580E090E0F0
:10070000FACF862FD6CF1F93CF93DF93282F30E0D9
:10071000F901E254FE4F8491F901E858FE4FD4915B
:10072000F901EE5CFE4FC491CC23A1F0162F81118C
:100730005ADFEC2FF0E0EE0FFF1FE250FF4FA591C4
:10074000B4918FB7F894EC91111108C0D095DE23C5
:10075000DC938FBFDF91CF911F910895DE2BF8CFEF
:10076000862F642FD0CFCF93DF9390E0FC01E85821
:10077000FE4F24918E5C9E4FFC0184918823C9F02A
:1007800090E0880F991FFC01EC51FF4FA591B491A7
:10079000FC01E250FF4FC591D49161110DC09FB78C
:1007A000F8948C91209582238C9388812823288328
:1007B0009FBFDF91CF910895623051F49FB7F894B5
:1007C0003C91822F809583238C93E8812E2BEFCF51
:1007D0008FB7F894EC912E2B2C938FBFEACF862FF6
:1007E000642FC1CF3FB7F89480915F02909160026F
:1007F000A0916102B091620226B5A89B05C02F3F6F
:1008000019F00196A11DB11D3FBFBA2FA92F982F36
:100810008827BC01CD01620F711D811D911D42E031
:10082000660F771F881F991F4A95D1F708958F92F9
:100830009F92AF92BF92CF92DF92EF92FF924B01C5
:100840005C01D0DF6B017C01CDDF6C197D098E0965
:100850009F09683E734081059105B0F321E0821A3B
:100860009108A108B10888EEC80E83E0D81EE11CEB
:10087000F11C81149104A104B10431F7FF90EF90B1
:10088000DF90CF90BF90AF909F908F900895FC0124
:1008900001900020E9F73197AF01481B590BBC01CB
:1008A00089E692E070CDCF93DF93F1DFEC0184E332
:1008B00092E0EDDF8C0F9D1FDF91CF9108951F9285
:1008C0000F920FB60F9211240BB60F922F933F93F6
:1008D0004F935F936F937F938F939F93AF93BF9348
:1008E000EF93FF9389E692E0C1DDFF91EF91BF9115
:1008F000AF919F918F917F916F915F914F913F91B8
:100900002F910F900BBE0F900FBE0F901F90189558
:100910001F920F920FB60F9211240BB60F922F93C6
:100920008F939F93EF93FF93E0917902F0917A0276
:100930008081E0917F02F091800282FD1DC0908154
:10094000809182028F5F8F7320918302821741F022
:10095000E0918202F0E0E759FD4F958F809382028B
:10096000FF91EF919F918F912F910F900BBE0F9060
:100970000FBE0F901F9018958081F2CF1F920F929B
:100980000FB60F9211242F933F938F939F93AF93A2
:10099000BF938091650290916602A0916702B09129
:1009A000680230915E0223E0230F2D3758F501963F
:1009B000A11DB11D20935E02809365029093660293
:1009C000A0936702B093680280915F0290916002E9
:1009D000A0916102B09162020196A11DB11D8093A8
:1009E0005F0290936002A0936102B0936202BF9194
:1009F000AF919F918F913F912F910F900FBE0F90CC
:100A00001F90189526E8230F0296A11DB11DD2CF85
:100A100010926C0210926B0288EE93E0A0E0B0E0BE
:100A200080936D0290936E02A0936F02B093700258
:100A30008CE192E090936A028093690285EC90E0E9
:100A4000909376028093750284EC90E09093780204
:100A50008093770280EC90E090937A028093790201
:100A600081EC90E090937C0280937B0282EC90E09A
:100A700090937E0280937D0286EC90E090938002BA
:100A800080937F021092820210928302109284025D
:100A9000109285021092080310920C0310920B031F
:100AA00010920D038EE292E0909307038093060369
:100AB000E2E2F3E01082148213821582369683E01C
:100AC000EE35F807B9F784E092E0909369038093DC
:100AD000680380E092E090936B0380936A0384E064
:100AE00080936C0380936D0388E092E0909367039A
:100AF000809366038AE090E090936F0380936E0387
:100B000084EF91E0909371038093700310927403CB
:100B100010927303109262031092630310926403A5
:100B200010926503109272030895789484B58260E0
:100B300084BD84B5816084BD85B5826085BD85B581
:100B4000816085BD80916E00816080936E001092FF
:100B5000810080918100826080938100809181007A
:100B6000816080938100809180008160809380000B
:100B70008091B10084608093B1008091B000816069
:100B80008093B00080919100826080939100809169
:100B900091008160809391008091900081608093AA
:100BA00090008091A10082608093A1008091A100BB
:100BB00081608093A1008091A00081608093A0005B
:100BC00080912101826080932101809121018160C7
:100BD0008093210180912001816080932001809188
:100BE0007A00846080937A0080917A00826080939A
:100BF0007A0080917A00816080937A0080917A00F7
:100C0000806880937A001092C100E0917902F0919F
:100C10007A0282E08083E0917502F0917602108280
:100C2000E0917702F09178028FEC8083109281023C
:100C3000E0917D02F0917E0286E08083E0917B026C
:100C4000F0917C02808180618083E0917B02F09151
:100C50007C02808188608083E0917B02F0917C023D
:100C6000808180688083E0917B02F0917C028081AA
:100C70008F7D808361E085E076DD61E086E073DD75
:100C800061E087E070DD61E088E06DDD61E089E0D2
:100C90006ADD61E08AE067DD61E08BE064DD61E0F0
:100CA0008CE061DD61E08DE05EDD812C912C5401F2
:100CB000839442E4442E43E0542E66246A94762CB6
:100CC00051E0509372038FB7F894409165025091B0
:100CD000660260916702709168028FBF8091620323
:100CE00090916303A0916403B0916503481B590B75
:100CF0006A0B7B0B80916E0390916F03B0E0A0E0D4
:100D000084179507A607B70708F017C1C0E08091C0
:100D10006C03C81758F4E0916803F0916903EC0F75
:100D2000F11D62E080811FDDCF5FF1CF312C80911A
:100D30006D03381608F05AC0032D10E0E0916A03E5
:100D4000F0916B03E00FF11F61E080810CDDE09119
:100D50006A03F0916B03E00FF11F60E08081D3DC48
:100D6000D501C401032C04C0880F991FAA1FBB1F03
:100D70000A94D2F76C017C01E094F094212C8091CC
:100D80006C032816F0F4C22DD0E0E0916803F091D6
:100D90006903EC0FFD1F80818CDC2496CC0FDD1FD6
:100DA000CA5FDC4F892B41F4888199818C299D2968
:100DB000998388832394E3CF888199818E219F2111
:100DC000F7CFE0916A03F0916B03E00FF11F61E050
:100DD000808199DC80916A0390916B03080F191F41
:100DE00060E0F8018081BFDC3394A1CF06E013E01E
:100DF000E8018F8D98A1892B21F41C8E7E8E6D8E3B
:100E000019A226964C165D06A1F7D12C80916C0391
:100E1000D81608F052C0C12CED2CF12CEE0CFF1CA2
:100E2000C701825F9C4F7C0120916D03C21608F0C0
:100E300042C0F701608171810C2C02C076956795E4
:100E40000A94E2F7D29E900111242C0D311DE6E0A8
:100E5000F3E080E0458D568D2417350709F4C8C1AD
:100E60008F5F36968A30B1F760FF23C0E6E0F3E08B
:100E700090E080E0448D411117C0E0916603F0914D
:100E80006703E20FF31F408156E0589FF001599F1E
:100E9000F00D1124EA5FFC4F448F368F258F10A28E
:100EA000178E61E002DA05C0019636968A30910508
:100EB00009F7C394B9CFD394A9CF80E0F80191A1E9
:100EC0009111892F0A5F1F4FC017D107B9F79FB73C
:100ED000F8944091650250916602609167027091AA
:100EE00068029FBF4093620350936303609364035F
:100EF00070936503882309F1809127038823E9F023
:100F000080912503909126030197B9F480912203E3
:100F1000813309F43EC0823309F049C061E086E0C4
:100F2000F2DB89E392E0BFDC68EE73E080E090E002
:100F30007EDC60E086E0E7DB02C01092720389E6A7
:100F400092E07FDA1816190614F589E692E057DA6E
:100F5000909364028093630281E592E098DC609153
:100F6000630289E692E0A4DA84E392E090DC809167
:100F70006302813309F0C1C061E085E0C4DB64EF46
:100F800071E080E090E053DC60E085E0BCDBFBDA00
:100F900097CE61E085E0B7DB87E392E084DC68EE22
:100FA00073E080E090E043DC60E085E0C4CF833311
:100FB00071F461E087E0A7DB8BE392E074DC68EE1C
:100FC00073E080E090E033DC60E087E0B4CF84330E
:100FD00071F461E088E097DB8DE392E064DC68EE19
:100FE00073E080E090E023DC60E088E0A4CF85330C
:100FF00071F461E089E087DB8FE392E054DC68EE16
:1010000073E080E090E013DC60E089E094CF863309
:1010100071F461E08AE077DB81E492E044DC68EE21
:1010200073E080E090E003DC60E08AE084CF873307
:1010300071F461E08BE067DB83E492E034DC68EE1E
:1010400073E080E090E0F3DB60E08BE074CF883306
:1010500071F461E08CE057DB85E492E024DC68EE1B
:1010600073E080E090E0E3DB60E08CE064CF893304
:1010700071F461E08DE047DB87E492E014DC68EE18
:1010800073E080E090E0D3DB60E08DE054CF813608
:1010900091F461E085E037DB61E086E034DB89E4F0
:1010A00092E001DC68EE73E080E090E0C0DB60E09D
:1010B00086E029DB79CF823649F461E085E023DBE5
:1010C00061E086E020DB8BE492E0EBCF833649F4ED
:1010D00061E085E018DB61E086E015DB8DE492E0FD
:1010E000E0CF843609F02BCF61E085E00CDB61E0D6
:1010F00086E009DB8FE492E0D4CF823359F461E0DB
:1011000086E001DB64EF71E080E090E090DB60E07E
:1011100086E03CCF833359F461E087E0F4DA64EF92
:1011200071E080E090E083DB60E087E02FCF8433E4
:1011300059F461E088E0E7DA64EF71E080E090E084
:1011400076DB60E088E022CF853359F461E089E006
:10115000DADA64EF71E080E090E069DB60E089E07A
:1011600015CF863359F461E08AE0CDDA64EF71E09F
:1011700080E090E05CDB60E08AE008CF873359F4E0
:1011800061E08BE0C0DA64EF71E080E090E04FDB7B
:1011900060E08BE0FBCE883359F461E08CE0B3DA99
:1011A00064EF71E080E090E042DB60E08CE0EECE46
:1011B000893359F461E08DE0A6DA64EF71E080E0F4
:1011C00090E035DB60E08DE0E1CE8156843008F0C0
:1011D000DECE61E085E097DA61E086E094DA64EFE4
:1011E00071E080E090E023DB60E085E08CDA8FCF77
:1011F000617058CEEE0FFF1F881F8BBF0790F691CE
:08120000E02D1994F894FFCFD2
:101208001617181D191A1B1C2A3023613132336234
:101218003435366337383964000000005802C3019A
:10122800F001A4022102FF01130200000000EF03F5
:10123800B00381030D0A0031003200330034003559
:10124800003600370038003900610062006300642E
:0E12580000492072656365697665643A20007E
:00000001FF
