:100000000C9463010C9494010C9494010C9494014D
:100010000C9494010C9494010C9494010C9494010C
:100020000C9494010C9494010C9494010C949401FC
:100030000C9494010C947A060C9494010C94940101
:100040000C9494010C94AE070C9494010C949401BC
:100050000C9494010C9494010C9494010C94DA0681
:100060000C9494010C9494010C9494010C949401BC
:100070000C9494010C9494010C9494010C949401AC
:100080000C9480070C9494010C9494010C949401AA
:100090000C9494010C9494010C9494010C9494018C
:1000A0000C9494010C9494010C9452070C949401B8
:1000B0000C9494010C9494010C9494010C942407D6
:1000C0000C9494010C9494010C9494010C9494015C
:1000D0000C9494010C9494010C9494010C9494014C
:1000E0000C94940108000000BE922449123EABAA71
:1000F000AA2ABECDCCCC4C3E00000080BEABAAAA42
:10010000AA3E00000000BF000000803F0000000089
:1001100000084178D3BB4387D1133D190E3CC3BDC2
:100120004282AD2B3E68EC8276BED98FE1A93E4C6F
:1001300080EFFFBE01C4FF7F3F00000000000C9471
:10014000CE0D0C9489020C94B3040C949D020C9473
:1001500017030C9474020C9499020C949C030C9455
:10016000A1020C94E6020C94AB020C94B5020C9420
:1001700058060C947E020C94B2040C9429020C9440
:10018000B9020C94A7020C9482020C947A020C948B
:1001900086020C94AF020C948F020C9493020C9480
:1001A000B40200002100240027002A002D003000A6
:1001B000330001010000040107010A0100002000D2
:1001C0002300260029002C002F003200000100002F
:1001D00003010601090100000A0B02090C0D0E08BB
:1001E0000703040100000000000000000000000000
:1001F00000000000000000000000000000000000FF
:1002000000001211100000000000000000000000BB
:1002100000000000000000000000000001021020AB
:10022000200808102040102040800201020108042C
:1002300002010102040810204080804020100804C0
:100240000201800402018040201008040201080419
:10025000020101020408102040800102040810205D
:10026000408000002200250028002B002E003100D5
:10027000340002010000050108010B010505050518
:10028000070508080808020202020A0A080804040E
:10029000040401010101010101010303030303033C
:1002A0000303040707070C0C0C0C0C0C0C0C0202CB
:1002B000020206060606060606060B0B0B0B0B0BC8
:1002C0000B0B0200CE0D11241FBECFEFD1E2DEBF1B
:1002D000CDBF00E00CBF12E0A0E0B2E0E0EBF2E244
:1002E00000E00BBF02C007900D92A035B107D9F70F
:1002F00023E0A0E5B2E001C01D92AC39B207E1F7FE
:1003000011E0C3E6D1E000E006C021970109802F8B
:10031000FE010E944E11C236D10780E00807A9F7FE
:100320000E94DC070C9456110C94000096E0899F03
:10033000D0011124AB5EBC4F90967C936E935F9777
:1003400091E091969C939197E0918203F0918303C1
:1003500090918103992339F0309751F0811108C0B1
:10036000809131031994309719F05C968C91FACFF3
:100370000895CF92DF92EF92FF920F931F9396E032
:10038000899FF0011124EB5EFC4F11A2278D30A153
:100390002130310551F178F02230310509F451C096
:1003A0002330310509F452C01F910F91FF90EF9057
:1003B000DF90CF9008956623B9F361E070E00E946A
:1003C00096012FB7F8948091110390911203A09198
:1003D0001303B09114032FBF80936D0390936E03AA
:1003E000A0936F03B0937003DFCF9FB7F894C090D2
:1003F0001103D0901203E0901303F09014039FBFF9
:1004000000916D0310916E0320916F033091700382
:10041000C01AD10AE20AF30A00917F031091800307
:1004200030E020E00C151D052E053F0550F462E07C
:1004300070E01F910F91FF90EF90DF90CF900C94A0
:1004400096016111B1CF63E070E0F3CF70E060E03E
:10045000F0CFAF92BF92CF92DF92EF92FF920F93C5
:100460001F93CF93DF936C017B018B01040F151F4A
:10047000EB015E01AE18BF08C017D10759F06991B2
:10048000D601ED91FC910190F081E02DC601199506
:10049000892B79F7C501DF91CF911F910F91FF90C3
:1004A000EF90DF90CF90BF90AF9008958150823150
:1004B00008F05AC0E82FF0E08827EE59FD4F8F4F23
:1004C0000C944E118202860274027A027E02B402F9
:1004D00089028F02930299029D02A102A702AB0238
:1004E000B402AF02B502B902809180008F77809389
:1004F00080000895809180008F7DF9CF80918000E9
:10050000877FF5CF84B58F7784BD089584B58F7DBF
:10051000FBCF8091B0008F778093B00008958091D9
:10052000B0008F7DF9CF809190008F7780939000FD
:100530000895809190008F7DF9CF80919000877F02
:10054000F5CF8091A0008F778093A00008958091CF
:10055000A0008F7DF9CF8091A000877FF5CF80919B
:1005600020018F77809320010895809120018F7D55
:10057000F9CF80912001877FF5CFCF93DF93282F8C
:1005800030E0F901EA52FE4F8491F901E45EFD4F3B
:10059000D491F901E458FD4FC491CC23A1F081110D
:1005A0000E945602EC2FF0E0EE0FFF1FE454FE4FC6
:1005B000A591B491EC91ED2381E090E009F480E005
:1005C000DF91CF91089580E090E0FACF862F0C94D0
:1005D000BD021F93CF93DF93282F30E0F901EA5239
:1005E000FE4F8491F901E45EFD4FD491F901E45886
:1005F000FD4FC491CC23A9F0162F81110E94560201
:10060000EC2FF0E0EE0FFF1FEE59FD4FA591B491D6
:100610008FB7F894EC91111108C0D095DE23DC93CC
:100620008FBFDF91CF911F910895DE2BF8CF862FDA
:10063000642F0C94E9029091180289130DC0E2EC2A
:10064000F2E0E4919FEF90931802E230E1F038F489
:10065000EE2381F0E13089F060E00C94E902E430AF
:1006600049F110F1E530C1F7909173009D7F9093AF
:100670007300F2CF10926E00EFCF90916F009D7FCC
:1006800090936F00E9CF909170009D7F90937000E0
:1006900091E09093B0009091B100987F9460909316
:1006A000B1001092B300D8CF909171009D7F9093CC
:1006B0007100D2CF909172009D7F90937200CCCF49
:1006C000CF93DF9390E0FC01E45EFD4F24918458CA
:1006D0009D4FFC0184918823C9F090E0880F991FF9
:1006E000FC01EE55FE4FA591B491FC01EE59FD4F72
:1006F000C591D49161110DC09FB7F8948C9120954C
:1007000082238C938881282328839FBFDF91CF91F8
:100710000895623051F49FB7F8943C91822F8095F0
:1007200083238C93E8812E2BEFCF8FB7F894EC9135
:100730002E2B2C938FBFEACF862F642F0C9460034F
:100740003FB7F8948091560290915702A0915802B9
:10075000B091590226B5A89B05C02F3F19F001960C
:10076000A11DB11D3FBFBA2FA92F982F8827BC010B
:10077000CD01620F711D811D911D42E0660F771F33
:10078000881F991F4A95D1F708958F929F92AF9233
:10079000BF92CF92DF92EF92FF926B017C010E9499
:1007A000A0034B015C01C114D104E104F104B9F0D0
:1007B0000E94A003681979098A099B09683E734061
:1007C0008105910580F321E0C21AD108E108F10802
:1007D00088EE880E83E0981EA11CB11CE4CFFF9028
:1007E000EF90DF90CF90BF90AF909F908F90089543
:1007F000AF92BF92CF92DF92EF92FF920F931F932F
:10080000CF93DF936B017A01EC01CF5ADD4F288142
:100810003CE0389F8001399F100D1124A0905002B8
:10082000B12C27FF1FC0FB011182108288818F5FCE
:10083000888388819801280F311D87FD3A95F6013C
:100840002A153B051CF488818C30C4F1808191818C
:10085000049680349C4908F473C0F601808191812C
:10086000049670C088819801280F311D87FD3A9544
:100870002A153B05DCF68881A801480F511D87FD2C
:100880005A95FA01EE0FFF1FE40FF51FE658FD4FD2
:10089000808186FFCBCF8881F801E80FF11D87FDAD
:1008A000FA95CF01EE0FFF1FE80FF91FE658FD4F35
:1008B000808160E08F730E94E902B8CF80819181CE
:1008C0002881A801420F511D27FD5A959A01FA016E
:1008D000EE0FFF1FE20FF31FE658FD4F218132811B
:1008E000820F931FF7019183808388819801280FDD
:1008F000311D87FD3A95F901EE0FFF1FE20FF31F3F
:10090000E658FD4F808186FF22C08881080F111DA7
:1009100087FD1A95F801EE0FFF1FE00FF11FE65853
:10092000FD4F808161E08F73DF91CF911F910F9117
:10093000FF90EF90DF90CF90BF90AF900C94E902C2
:1009400080E49CE9F701918380838FEF8883DF91B6
:10095000CF911F910F91FF90EF90DF90CF90BF90BC
:10096000AF900895089590E080E00895FC01019013
:100970000020E9F73197AF01481B590BBC0184E80F
:1009800093E00C9429028F929F92AF92BF920F93A3
:100990001F93CF93DF93CDB7DEB7A1970FB6F8942F
:1009A000DEBF0FBECDBF19A2423008F44AE08E016F
:1009B0000F5D1F4F842E912CB12CA12CA501940109
:1009C0000E945F0EE62FB901CA01EA30F4F4E05D3F
:1009D000D801EE938D01232B242B252B79F790E062
:1009E00080E0109719F0CD010E94B604A1960FB6D1
:1009F000F894DEBF0FBECDBFDF91CF911F910F9155
:100A0000BF90AF909F908F900895E95CE1CFCF9316
:100A1000DF93EC0160E08E810E94E90261E08E814B
:100A20000E94E90260E08E810E94E9028BE891E079
:100A30000197F1F7DF91CF910895CF92DF92EF9276
:100A4000FF920F931F93CF93DF936C017C0187E09C
:100A5000E80EF11CD0E0C0E0062F10E0B8010C2E2B
:100A600002C0759567950A94E2F76170F70181916C
:100A70007F010E94E9022196C430D10579F7C601B1
:100A8000DF91CF911F910F91FF90EF90DF90CF906A
:100A90000C940705CF92DF92EF92FF920F931F9372
:100AA000CF93DF93EC01F62E642F8C810E94E90234
:100AB0008D818F3F19F060E00E94E9020F2D10E058
:100AC0008F8584FF25C06E0187E0C80ED11CF12CF4
:100AD000E12CB8010E2C02C0759567950A94E2F7D7
:100AE0006170F60181916F010E94E902FFEFEF1A38
:100AF000FF0A88E0E816F10461F7CE01DF91CF919B
:100B00001F910F91FF90EF90DF90CF900C9407050D
:100B1000B80184E0759567958A95E1F7CE010E944A
:100B20001D056F2DCE01DF91CF911F910F91FF9089
:100B3000EF90DF90CF900C941D0540E0682F84E883
:100B400093E00C944A05CF93DF93823029F490917F
:100B50009303986090939303809397031092980364
:100B600080E48093990380E180939A0380E58093E9
:100B70009B0361E0809188030E9460038091890358
:100B80008F3F19F061E00E94600361E080918A0369
:100B90000E946003C4E8D3E09E0124583340809152
:100BA000930384FD0BC084E090E021962817390759
:100BB00044F461E08E810E946003EECF88E090E013
:100BC000F4CF8BE39DE00197F1F760E0809188031B
:100BD0000E94E90260E080918A030E94E90280910C
:100BE00089038F3F19F060E00E94E902809193032E
:100BF00084FD39C063E084E893E00E941D05CBE4E6
:100C0000D6E4CE010197F1F763E084E893E00E9417
:100C10001D052197F1F763E084E893E00E941D052C
:100C200083E592E00197F1F762E084E893E00E94A7
:100C30001D058091930380620E949D0584E080934E
:100C400094038CE00E949D0581E00E949D058BE34A
:100C50009FE10197F1F782E08093950386E0DF91B1
:100C6000CF910C949D0580620E949D058BE496E4D3
:100C70000197F1F78091930380620E949D0583E5BF
:100C800092E00197F1F78091930380620E949D05A5
:100C9000D0CF90919703691710F06FEF690FE62F8F
:100CA000F0E0EC57FC4F9489890F80680C949D0507
:100CB00041E00E944A0581E090E00895CF92DF92E2
:100CC000EF92FF926B017C0141E06DE284E893E0DA
:100CD0000E944A0566277727CB016C197D098E098A
:100CE0009F094AE00E94C3040196FF90EF90DF90B5
:100CF000CF9008951F920F920FB60F9211240BB64A
:100D00000F922F933F934F935F936F937F938F93A4
:100D10009F93AF93BF93EF93FF9380916E02909157
:100D20006F02A0917002B0917102892B8A2B8B2BDC
:100D3000E1F190915D02E0915E02F0915F028081AD
:100D40008927808380916E0290916F02A09170023A
:100D5000B0917102181619061A061B069CF48091B0
:100D60006E0290916F02A0917002B0917102019792
:100D7000A109B10980936E0290936F02A093700253
:100D8000B0937102FF91EF91BF91AF919F918F91BD
:100D90007F916F915F914F913F912F910F900BBE7B
:100DA0000F900FBE0F901F901895809118020E940F
:100DB0001B03E8CF1F920F920FB60F9211242F93AF
:100DC0003F938F939F93AF93BF9380911103909123
:100DD0001203A0911303B09114033091550223E044
:100DE000230F2D3758F50196A11DB11D20935502F3
:100DF0008093110390931203A0931303B0931403F1
:100E00008091560290915702A0915802B0915902D8
:100E10000196A11DB11D8093560290935702A09395
:100E20005802B0935902BF91AF919F918F913F911A
:100E30002F910F900FBE0F901F90189526E8230F4B
:100E40000296A11DB11DD2CF1F920F920FB60F9225
:100E500011240BB60F922F933F934F935F936F9391
:100E60007F938F939F93AF93BF93EF93FF9348E24A
:100E700051E064E271E090E080E00E94F803FF91AD
:100E8000EF91BF91AF919F918F917F916F915F9102
:100E90004F913F912F910F900BBE0F900FBE0F906F
:100EA0001F9018951F920F920FB60F9211240BB638
:100EB0000F922F933F934F935F936F937F938F93F3
:100EC0009F93AF93BF93EF93FF9348EA50E064EA98
:100ED00070E083E090E00E94F803FF91EF91BF91F2
:100EE000AF919F918F917F916F915F914F913F91C2
:100EF0002F910F900BBE0F900FBE0F901F90189563
:100F00001F920F920FB60F9211240BB60F922F93D0
:100F10003F934F935F936F937F938F939F93AF9381
:100F2000BF93EF93FF9348E950E064E970E082E0FB
:100F300090E00E94F803FF91EF91BF91AF919F91D4
:100F40008F917F916F915F914F913F912F910F9072
:100F50000BBE0F900FBE0F901F9018951F920F920F
:100F60000FB60F9211240BB60F922F933F934F930E
:100F70005F936F937F938F939F93AF93BF93EF9301
:100F8000FF9348E850E064E870E081E090E00E9460
:100F9000F803FF91EF91BF91AF919F918F917F9156
:100FA0006F915F914F913F912F910F900BBE0F90DA
:100FB0000FBE0F901F901895CF93DF9300D000D0F5
:100FC000CDB7DEB7789484B5826084BD84B5816086
:100FD00084BD85B5826085BD85B5816085BD809104
:100FE0006E00816080936E0010928100809181007C
:100FF0008260809381008091810081608093810074
:10100000809180008160809380008091B100846035
:101010008093B1008091B00081608093B000809196
:101020009100826080939100809191008160809313
:101030009100809190008160809390008091A10048
:1010400082608093A1008091A10081608093A100C3
:101050008091A00081608093A00080912101826036
:1010600080932101809121018160809321018091F1
:10107000200181608093200180917A0084608093B8
:101080007A0080917A00826080937A0080917A0061
:10109000816080937A0080917A00806880937A00E2
:1010A0001092C10080910A03803308F051C061E0C2
:1010B00080E00E94600380910A03282F30E0F9014C
:1010C000EE0FFF1FE20FF31FE658FD4F9081907C5B
:1010D000908310920B0310920C032CE0622F0E945D
:1010E0004211829FB001112430E020E0AB01420F99
:1010F000531FFA01EE0FFF1FE40FF51FE658FD4FD7
:10110000908196FD17C02F5F3F4F2C30310571F74E
:10111000813009F066C01092800082E080938100E7
:101120001092850010928400B19A80916F008260C5
:1011300080936F00E0910A038E2F90E0FC01EE0F88
:10114000FF1FE80FF91FE658FD4F80818064808300
:1011500061E087E00E94600382E00E94A3059FE3B4
:10116000292E9FE1392E88248A94982C540181E0FD
:10117000809381038FB7F89440911103509112032B
:1011800060911303709114038FBF8091710390914C
:101190007203A0917303B0917403481B590B6A0B3F
:1011A0007B0B80917D0390917E03B0E0A0E08417DB
:1011B0009507A607B70708F07DC1198280917B03C8
:1011C00029812817D0F5E0917703F0917803E20F99
:1011D000F11D62E080810E94600339813F5F3983A5
:1011E000EDCF823061F410929000809391001092C4
:1011F00095001092940088BB809371009BCF833040
:1012000069F41092A00082E08093A1001092A500E2
:101210001092A40089BB809372008CCF81118ACF79
:101220001092200182E080932101109225011092FA
:1012300024018ABB809373007DCF10E080917C03F2
:10124000181708F071C0E12EF12CE0917903F091AC
:101250007A03EE0DFF1D61E080810E946003E09142
:101260007903F0917A03EE0DFF1D60E080810E940A
:10127000E90281E090E0A0E0B0E0012E04C0880F18
:10128000991FAA1FBB1F0A94D2F73C016C01C0949E
:10129000D09400E080917B03081778F5402F50E050
:1012A0005A834983E0917703F0917803CA01E80FEC
:1012B000F91F80810E94BD02A981BA811496BA8368
:1012C000A983892B69F4AA0FBB1FAB5EBC4F8D911C
:1012D0009C911197862997298D939C930F5FDACF64
:1012E000E981FA81EE0FFF1FEB5EFC4F8081918157
:1012F0008C219D2191838083F1CFE0917903F0913E
:101300007A03EE0DFF1D61E080810E94E902809169
:10131000790390917A03E80EF91E60E0D7018C9171
:101320000E9460031F5F8ACF05E113E01A830983DF
:10133000A981BA815F968D919C919097892B59F4E0
:101340005C961C925C97EFEFFFEF5E96FC93EE933A
:101350005D9791961C9229813A812A5F3F4F3A838B
:1013600029832155334021F7F12C80917B03F81616
:1013700008F053C0E12CCF2CD12CCC0CDD1CC601C5
:10138000835E9C4F6C0120917C03E21608F043C001
:10139000D6016D917C910E2C02C0769567950A94CA
:1013A000E2F7F29E900111242E0D311DE5E1F3E0EC
:1013B00080E0458D568D2417350709F4EDC38F5F06
:1013C00036968A30B1F760FF24C0E5E1F3E090E0A3
:1013D00080E0448D411118C0E0917503F0917603CF
:1013E000E20FF31F4081B6E0B89FF001B99FF00D06
:1013F0001124EB5EFC4F448F368F258F10A2178E81
:1014000061E00E94B90105C0019636968A309105C7
:1014100001F7E394B8CFF394A8CF80E0F80191A14D
:101420009111892F0A5F1F4F29813A8120173107B7
:10143000A9F79FB7F894409111035091120360915E
:101440001303709114039FBF409371035093720371
:101450006093730370937403882361F18091360362
:10146000882341F18091340390913503019711F560
:101470008091310390ED980F9A3000F540910F0361
:10148000509110039AE0949F9001959F300D112484
:10149000082E000C990BC097820F931F9093100396
:1014A00080930F0380E090E0892B09F460CE0E94C6
:1014B00000005DCE1092810380E0DCCF8D3309F512
:1014C00040910F03509110035A83498350930E03A8
:1014D00040930D031092100310920F0360E080E020
:1014E0000E944906A981BA81BD01BB0F880B990BE7
:1014F00097FF03C00E945E06D5CF4AE00E94C30456
:10150000D1CF833279F680910F039091100328EEAA
:1015100033E0829FF001839FF00D929FF00D112424
:10152000FE83ED831092100310920F0360E080E0C1
:101530000E9449068D819E81092E000CAA0BBB0BCF
:1015400089839A83AB83BC83AD81BE81B7FFB8C06A
:1015500069817A818B819C810E945E0668EE73E0CE
:1015600080E090E00E94C50360910D0370910E032E
:10157000072E000C880B990B0E94960F20911902E0
:1015800030911A0240911B0250911C020E94461099
:1015900018160CF035C180917B00877F80937B000B
:1015A000B0E4B0937C0080917A00806480937A00EC
:1015B00080917A0086FDFCCF60917800809179005F
:1015C000782F072E000C880B990B0E94960F9B0119
:1015D000AC0160E070E080E894E40E94F30E20E04B
:1015E00030E040E85FE30E94810E20E030E44CE10F
:1015F00056E40E949B100E9453106B017C0129E568
:1016000037E44CEB53E30E949B10A70196010E9424
:101610009B1023E73FE745E759E30E94820EA701AD
:1016200096010E949B102BEE3FEF43E95AE30E9484
:10163000820E9B01AC0160E070E080E89FE30E94B5
:10164000F30E20E030E042E053E40E94810E60930C
:10165000190270931A0280931B0290931C0260E09F
:1016600080E00E94490683E392E00E94B60460E0B5
:1016700086E00E944906C0901902D0901A02E090BC
:101680001B02F0901C02A7019601C701B6010E943F
:1016900008118823E9F084E492E00E94B60461E036
:1016A00080E00E94490660910D0370910E03072EA1
:1016B000000C880B990B97FF9FC00E945E0654CFC9
:1016C0004AE069817A818B819C810E94C30446CF64
:1016D00026013701E89477F82FEF3FEF4FE75FE7F8
:1016E000C301B2010E94081181110DC02FEF3FEF1D
:1016F0004FE75FE7C301B2010E94EE0E18161CF41B
:1017000088E492E0CACF2FEF3FEF4FE75FE4C701D5
:10171000B6010E94461018161CF48CE492E0BDCF6E
:101720002FEF3FEF4FE75FECC701B6010E94EE0ECF
:1017300087FDF3CF20E030E0A901C701B6010E9488
:10174000EE0E87FF0AC041E06DE284E893E00E945C
:101750004A05F7FAF094F7F8F0942AE037ED43EAF7
:101760005BE3C701B6010E94820E2B013C010E947F
:10177000650F6B017C010E94940F9B01AC01C301BA
:10178000B2010E94810E2B013C014AE0C701B60163
:101790000E94C30441E06EE284E893E00E944A059F
:1017A00020E030E040E251E4C301B2010E949B100E
:1017B0002B013C010E94650F6B01F12CE12C4AE0EA
:1017C000C701B6010E94C304C701B6010E94940F6D
:1017D0009B01AC01C301B2010E94810E20E030E008
:1017E00040E251E40E949B100E94650F90E080E06F
:1017F0004AE00E94C30453CF4AE00E94C304B4CE1F
:1018000069817A818B819C810E94C50340910A0382
:101810004033E0F420910C0388E592E0821B9109AB
:1018200027FD939563E0880F991F6A95E1F7049768
:101830006FB7F89450E09A01220F331F240F351F21
:10184000F901E658FD4F928381836FBF80911802A2
:10185000873091F08F3FB1F168EE73E080E090E067
:101860000E94C50387E00E941B0368EE73E080E0DE
:1018700090E00E94C50316CEE2ECF2E0149117FD51
:10188000EBCF61E087E00E946003112309F4F4C00C
:10189000123009F005C18091B100887F8360809388
:1018A000B10089EF8093B30080926E0290926F0234
:1018B000A0927002B0927102809170008260809359
:1018C0007000CACF87E080931802E2ECF2E0149136
:1018D000812F1F3F09F4C0CF123009F46BC060F4B0
:1018E000112381F1113009F446C087FDB5CF61E0C5
:1018F00087E00E946003CCCF143009F49EC008F446
:101900007CC0153091F71092200110922101809136
:101910002101886080932101809121018160809361
:101920002101E3E8F2E08491E82FF0E0EE0FFF1FE1
:10193000EE59FD4F85919491E3E2F2E0849180931A
:101940005A029FCF14BC15BC84B5826084BD85B596
:10195000816085BDE3E8F2E08491E82FF0E0EE0FCE
:10196000FF1FEE59FD4F85919491E3E2F2E08491DF
:101970008093610286CF1092800010928100809146
:1019800081008860809381008091810081608093D4
:101990008100E3E8F2E08491E82FF0E0EE0FFF1F12
:1019A000EE59FD4F85919491E3E2F2E084918093AA
:1019B000600267CF1092B0001092B1008091B00029
:1019C00082608093B0008091B10081608093B1000B
:1019D000E3E8F2E08491E82FF0E0EE0FFF1FEE590C
:1019E000FD4F8591949190935F0280935E02E3E2B4
:1019F000F2E0849180935D0244CF109290001092A7
:101A00009100809191008860809391008091910075
:101A1000816080939100E3E8F2E08491E82FF0E0A8
:101A2000EE0FFF1FEE59FD4F85919491E3E2F2E036
:101A3000849180935C0213E024CF1092A000109256
:101A4000A1008091A10088608093A1008091A100F5
:101A500081608093A100E3E8F2E08491E82FF0E058
:101A6000EE0FFF1FEE59FD4F85919491E3E2F2E0F6
:101A7000849180935B0205CF85B5887F836085BDA7
:101A80008CE787BD8092760290927702A0927802CE
:101A9000B092790280916E00826080936E00DCCEFD
:101AA0001130C1F480918100887F81608093810032
:101AB0003092890020928800809272029092730284
:101AC000A0927402B092750280916F008260809340
:101AD0006F00C2CE1330C1F480919100887F816085
:101AE00080939100309299002092980080926A022F
:101AF00090926B02A0926C02B0926D028091710084
:101B0000826080937100A8CE1430C1F48091A1004E
:101B1000887F81608093A1003092A9002092A80064
:101B20008092660290926702A0926802B092690267
:101B3000809172008260809372008ECE1530C1F465
:101B400080912101887F8160809321013092290159
:101B5000209228018092620290926302A092640215
:101B6000B09265028091730082608093730074CE9E
:101B7000123081F034F4112359F0113009F06CCE99
:101B800097CF143049F20CF4ADCF1530F9F264CE92
:101B90008FE377CF8FE386CE617033CC8091500294
:101BA000803308F088C091E0980F909350028093A2
:101BB0000A0390E0FC01EE0FFF1FE80FF91FE65843
:101BC000FD4F88EB9BE09283818310921703109264
:101BD0001B0310921A0310921C038DE292E0909363
:101BE000160380931503E1E3F3E01082148213825D
:101BF0001582369683E0ED36F807B9F784E092E077
:101C0000909378038093770380E092E090937A0337
:101C10008093790384E080937B0380937C0388E046
:101C200092E090937603809375038AE090E090931E
:101C30007E0380937D0384EF91E0909380038093F3
:101C40007F0310928303109282031092710310920B
:101C50007203109273031092740310928103109216
:101C600087031092860381E292E09093850380932C
:101C700084038DE0809388038FEF809389038CE049
:101C800080938A0388E080938B0389E080938C03A0
:101C90008AE080938D038BE080938E0310928F03F4
:101CA000109290031092910310929203109293035A
:101CB00081E00C94A3058FEF80930A0386CFA1E205
:101CC0001A2EAA1BBB1BFD010DC0AA1FBB1FEE1FB6
:101CD000FF1FA217B307E407F50720F0A21BB30B01
:101CE000E40BF50B661F771F881F991F1A9469F77D
:101CF00060957095809590959B01AC01BD01CF01D9
:101D000008955058BB27AA270E94990E0C940C10D6
:101D10000E94FE0F38F00E94051020F039F49F3F1A
:101D200019F426F40C94FB0F0EF4E095E7FB0C94E9
:101D3000F50FE92F0E941D1058F3BA1762077307B9
:101D40008407950720F079F4A6F50C943F100EF463
:101D5000E0950B2EBA2FA02D0B01B90190010C01BB
:101D6000CA01A0011124FF27591B99F0593F50F4D3
:101D7000503E68F11A16F040A22F232F342F44272B
:101D8000585FF3CF469537952795A795F040539523
:101D9000C9F77EF41F16BA0B620B730B840BBAF0F3
:101DA0009150A1F0FF0FBB1F661F771F881FC2F75E
:101DB0000EC0BA0F621F731F841F48F48795779572
:101DC0006795B795F7959E3F08F0B0CF9395880F2C
:101DD00008F09927EE0F9795879508950E94D10FE7
:101DE00008F481E008950E94070F0C940C100E94E3
:101DF000051058F00E94FE0F40F029F45F3F29F0D3
:101E00000C94F50F51110C9440100C94FB0F0E9490
:101E10001D1068F39923B1F3552391F3951B550BCE
:101E2000BB27AA2762177307840738F09F5F5F4FAD
:101E3000220F331F441FAA1FA9F335D00E2E3AF0EC
:101E4000E0E832D091505040E695001CCAF72BD004
:101E5000FE2F29D0660F771F881FBB1F2617370755
:101E60004807AB07B0E809F0BB0B802DBF01FF2787
:101E700093585F4F3AF09E3F510578F00C94F50F60
:101E80000C9440105F3FE4F3983ED4F38695779529
:101E90006795B795F7959F5FC9F7880F911D969540
:101EA000879597F90895E1E0660F771F881FBB1F9C
:101EB000621773078407BA0720F0621B730B840B49
:101EC000BA0BEE1F88F7E09508950E94251088F060
:101ED0009F5798F0B92F9927B751B0F0E1F0660FEE
:101EE000771F881F991F1AF0BA95C9F714C0B1302F
:101EF00091F00E943F10B1E008950C943F10672FBD
:101F0000782F8827B85F39F0B93FCCF3869577955D
:101F10006795B395D9F73EF4909580957095619546
:101F20007F4F8F4F9F4F0895E89409C097FB3EF471
:101F300090958095709561957F4F8F4F9F4F992316
:101F4000A9F0F92F96E9BB279395F6958795779594
:101F50006795B795F111F8CFFAF4BB0F11F460FF54
:101F60001BC06F5F7F4F8F4F9F4F16C0882311F0AC
:101F700096E911C0772321F09EE8872F762F05C0C0
:101F8000662371F096E8862F70E060E02AF09A955B
:101F9000660F771F881FDAF7880F9695879597F950
:101FA0000895990F0008550FAA0BE0E8FEEF1616EA
:101FB0001706E807F907C0F012161306E407F5073D
:101FC00098F0621B730B840B950B39F40A2661F0B1
:101FD000232B242B252B21F408950A2609F4A14054
:101FE000A6958FEF811D811D089597F99F6780E861
:101FF00070E060E008959FEF80EC089500240A945B
:102000001616170618060906089500240A941216D3
:102010001306140605060895092E0394000C11F406
:10202000882352F0BB0F40F4BF2B11F460FF04C0B3
:102030006F5F7F4F8F4F9F4F089557FD9058440F0C
:10204000551F59F05F3F71F04795880F97FB991F17
:1020500061F09F3F79F087950895121613061406D4
:10206000551FF2CF4695F1DF08C016161706180661
:10207000991FF1CF86957105610508940895E8943C
:10208000BB2766277727CB0197F908950E94D10FC8
:1020900008F48FEF089516F00C940D110C94FB0FBB
:1020A00068940C94F50F0E942510A8F39923C1F3AE
:1020B000AEF3DF93CF931F930F93FF92C92FDD27CA
:1020C00088232AF02197660F771F881FDAF720E010
:1020D00030E040E85FEB9FE3883920F0803E38F045
:1020E00021968F770E94820EE4EEF0E004C00E94F9
:1020F000820EE1E1F1E00E941B118B01BE01EC01B7
:10210000FB2E6F5771097595771F880B990B0E94ED
:10211000960F28E132E741E35FE30E94AE10AF2D56
:102120009801AE01FF900F911F91CF91DF910E9416
:10213000990E0C940C100E94AE100C940C100E947E
:10214000FE0F38F00E94051020F0952311F00C943A
:10215000F50F0C94FB0F11240C9440100E941D10DD
:1021600070F3959FC1F3950F50E0551F629FF001EA
:10217000729FBB27F00DB11D639FAA27F00DB11D03
:10218000AA1F649F6627B00DA11D661F829F22278C
:10219000B00DA11D621F739FB00DA11D621F839F13
:1021A000A00D611D221F749F3327A00D611D231FE9
:1021B000849F600D211D822F762F6A2F11249F5737
:1021C00050409AF0F1F088234AF0EE0FFF1FBB1F3A
:1021D000661F771F881F91505040A9F79E3F5105F9
:1021E00080F00C94F50F0C9440105F3FE4F3983EA0
:1021F000D4F3869577956795B795F795E7959F5FA3
:10220000C1F7FE2B880F911D9695879597F9089534
:102210000E94D10F880B990B08959F3F31F0915088
:1022200020F4879577956795B795880F911D9695BA
:10223000879597F90895DF93CF931F930F93FF929C
:10224000EF92DF927B018C01689406C0DA2EEF01D9
:102250000E94AE10FE01E894A5912591359145911B
:102260005591A6F3EF010E94990EFE019701A80176
:10227000DA9469F7DF90EF90FF900F911F91CF9163
:10228000DF910895991B79E004C0991F961708F013
:10229000961B881F7A95C9F780950895EE0FFF1F4A
:1022A000881F8BBF0790F691E02D1994F894FFCF0B
:1022B0001D1B19172523211F3738392F3435362A8E
:1022C0003132332D23303D2BFF008088C3000000C6
:1022D0000058062902B304B204000000009C031752
:1022E00003E60254656D702020202020202020204D
:1022F000432020006E616E00696E66006F76660096
:00000001FF
