:100000000C9435010C9466010C9466010C94660105
:100010000C9466010C9466010C9466010C946601C4
:100020000C9466010C9466010C9466010C946601B4
:100030000C9466010C9466010C9466010C946601A4
:100040000C9466010C9466010C9466010C94660194
:100050000C9466010C9466010C9466010C94840562
:100060000C9466010C9466010C9466010C94660174
:100070000C9466010C9466010C9466010C94660164
:100080000C9466010C9466010C9466010C94660154
:100090000C9466010C9466010C9466010C94660144
:1000A0000C9466010C9466010C9466010C94660134
:1000B0000C9466010C9466010C9466010C94660124
:1000C0000C9466010C9466010C9466010C94660114
:1000D0000C9466010C9466010C9466010C94660104
:1000E0000C9466010C946C020C9435020C9465031C
:1000F0000C9435030C9462020C946B010C94400236
:100100000C9431020C9446020C943D020C9458025B
:100110000C9454020C944A020C9468030C94CC0581
:100120000C9466020C9470020C943B030C943902FC
:100130000C946B020C9468010C9450020C942B02EA
:100140000C941B020C945E02000020002300260089
:1001500029002C002F0032000001000003010601DD
:10016000090100000A0B02090C0D0E080703040127
:10017000000000000000000000000000000000007F
:10018000000000000000000000000000000012114C
:10019000100000000000000000000000000000004F
:1001A00000000000000000000000220025002800E0
:1001B0002B002E003100340002010000050108016F
:1001C0000B0100002100240027002A002D00300030
:1001D000330001010000040107010A0105050505BE
:1001E000070508080808020202020A0A08080404AF
:1001F00004040101010101010101030303030303DD
:100200000303040707070C0C0C0C0C0C0C0C02026B
:10021000020206060606060606060B0B0B0B0B0B68
:100220000B0B0102102020080810204010204080F5
:1002300002010201080402010102040810204080AA
:100240008040201008040201800402018040201038
:100250000804020108040201010204081020408081
:100260000102040810204080CC0511241FBECFEFEE
:10027000D1E2DEBFCDBF00E00CBF12E0A0E0B2E0F3
:10028000ECE8F6E100E00BBF02C007900D92A0364B
:10029000B107D9F722E0A0E6B2E001C01D92AC3F61
:1002A000B207E1F711E0C5E3D1E000E006C0219715
:1002B0000109802FFE010E94160BC433D10780E094
:1002C0000807A9F70E9441060C94320B0C94000019
:1002D00090E080E008950895CF93DF9300D00F92CF
:1002E000CDB7DEB73FB7F89480916C0290916D0264
:1002F000A0916E02B0916F0226B5A89B05C02F3F5A
:1003000019F00196A11DB11D3FBFBA2FA92F982F3B
:100310008827820F911DA11DB11D9C01AD0162E0D6
:10032000220F331F441F551F6A95D1F7CA01B90127
:100330000F900F900F900F90DF91CF9108958F92B3
:100340009F92AF92BF92CF92DF92EF92FF92CF93A4
:10035000DF9300D00F92CDB7DEB74B015C010E9456
:100360006C016B017C010E946C01DC01CB018C19DA
:100370009D09AE09BF09883E9340A105B10598F3D8
:1003800021E0821A9108A108B10888EEC80E83E026
:10039000D81EE11CF11C81149104A104B10419F7C9
:1003A0000F900F900F900F90DF91CF91FF90EF90F3
:1003B000DF90CF90BF90AF909F908F900895CF9394
:1003C000DF9390E0FC01EE5DFD4F249184529E4F3F
:1003D000FC0184918823C9F090E0880F991FFC01EB
:1003E000EE53FE4FA591B491FC01E855FE4FC59127
:1003F000D49161110DC09FB7F8948C912095822300
:100400008C938881282328839FBFDF91CF91089503
:10041000623051F49FB7F8943C91822F80958323EA
:100420008C93E8812E2BEFCF8FB7F894EC912E2B85
:100430002C938FBFEACF862F642F0C94DF0181505D
:10044000823108F048C0E82FF0E08827EC5CF44FD8
:100450008F4F0C94160B809180008F7780938000D3
:100460000895809180008F7DF9CF80918000877FF3
:10047000F5CF84B58F7784BD089584B58F7DFBCF8C
:100480008091B0008F778093B00008958091B00084
:100490008F7DF9CF809190008F77809390000895A1
:1004A000809190008F7DF9CF80919000877FF5CF6C
:1004B0008091A0008F778093A00008958091A00084
:1004C0008F7DF9CF8091A000877FF5CF80912001AB
:1004D0008F77809320010895809120018F7DF9CF3F
:1004E00080912001877FF5CF1F93CF93DF93162F45
:1004F000282F30E0F901EE59FE4F8491F901EE5DAD
:10050000FD4FD491F901E452FE4FC491CC23A1F0E8
:1005100081110E941F02EC2FF0E0EE0FFF1FE85543
:10052000FE4FA591B4918FB7F894EC91111108C0CA
:10053000D095DE23DC938FBFDF91CF911F9108957B
:10054000DE2BF8CFCF93DF93EC0160E08E810E9429
:10055000740261E08E810E94740260E08E810E94CC
:1005600074028BE891E00197F1F7DF91CF91089544
:10057000CF92DF92EF92FF920F931F93CF93DF936F
:10058000EC016C0187E0C80ED11C10E000E0E62E03
:10059000F12CB701002E02C0759567950A94E2F719
:1005A0006170F60181916F010E9474020F5F1F4F0D
:1005B0000430110571F7CE01DF91CF911F910F919A
:1005C000FF90EF90DF90CF900C94A202CF92DF9239
:1005D000EF92FF920F931F93CF93DF93EC01062FBF
:1005E000642F8C810E9474028D818F3F19F060E02E
:1005F0000E9474028F8584FF26C06E0187E0C80EBA
:10060000D11CF12CE12C10E0B8010E2C02C0759524
:1006100067950A94E2F76170F60181916F010E947B
:100620007402FFEFEF1AFF0A88E0E816F10461F7A1
:10063000CE01DF91CF911F910F91FF90EF90DF904E
:10064000CF900C94A202602F62956F70CE010E9431
:10065000B802602FCE01DF91CF911F910F91FF90D3
:10066000EF90DF90CF900C94B80241E00E94E60238
:1006700081E090E00895862F642F0C947402CF934C
:10068000DF93282F30E0F901EE59FE4F8491F901F4
:10069000EE5DFD4FD491F901E452FE4FC491CC239D
:1006A00079F081110E941F02EC2FF0E0EE0FFF1F86
:1006B000E85BFE4FA591B491EC91ED2381E009F444
:1006C00080E090E0DF91CF910895862F0C943F0356
:1006D000CF92DF92EF92FF920F931F93CF93DF930E
:1006E0007C016A0110E000E00C151D0581F0EB01B2
:1006F000D701ED91FC910190F081E02D6991C70146
:100700001995892B21F00F5F1F4FBE01EDCFC80156
:10071000DF91CF911F910F91FF90EF90DF90CF90DD
:10072000089596E0899FD0011124A357BD4F90965C
:100730007C936E935F9791E091969C939197E09153
:10074000FA02F091FB029091F902992339F0309767
:1007500051F0811108C08091A9021994309719F0C5
:100760005C968C91FACF0895CF92DF92EF92FF9230
:100770000F931F9396E0899FF0011124E357FD4FDB
:1007800011A2278D30A12230310509F455C0E0F4C3
:10079000232B31F56623E9F061E070E00E949103BC
:1007A0002FB7F8948091710290917202A091730218
:1007B000B09174022FBF8093E5029093E602A0935C
:1007C000E702B093E80205C070E060E02330310535
:1007D00059F11F910F91FF90EF90DF90CF90089506
:1007E0009FB7F894C0907102D0907202E0907302AB
:1007F000F09074029FBF0091E5021091E6022091F3
:10080000E7023091E802C01AD10AE20AF30A009125
:10081000F7021091F80230E020E00C151D052E05BE
:100820003F0550F462E070E01F910F91FF90EF9050
:10083000DF90CF900C9491036111CBCF63E070E017
:10084000F3CF682F40E085E792E00C94E602643035
:1008500008F063E090918802691710F06FEF690F5C
:10086000E62FF0E0EB58FD4F9489890F80680C94D7
:10087000210481E00E9421048BE39FE10197F1F7BD
:1008800008950F931F93CF93DF93823029F49091B3
:100890008402986090938402809388021092890267
:1008A00080E480938A0280E180938B0280E58093CC
:1008B0008C0261E0809179020E94DF0180917A02CE
:1008C0008F3F19F061E00E94DF0161E080917B02BF
:1008D0000E94DF010CE712E0D0E0C0E080918402CA
:1008E00084FD0DC084E090E0C817D90754F461E09E
:1008F000F80181918F010E94DF012196EFCF88E0FE
:10090000F2CF8BE39DE00197F1F760E080917902EF
:100910000E94740260E080917B020E9474028091C8
:100920007A028F3F19F060E00E9474028091840285
:1009300084FD36C063E085E792E00E94B802CBE414
:10094000D6E4CE010197F1F763E085E792E00E94DB
:10095000B8022197F1F763E085E792E00E94B802C0
:1009600083E592E00197F1F762E085E792E00E946B
:10097000B8028091840280620E94210484E0809306
:1009800085028CE00E9421040E94390482E0809359
:10099000860286E0DF91CF911F910F910C94210484
:1009A00080620E9421048BE496E40197F1F7809124
:1009B000840280620E94210483E592E00197F1F7AE
:1009C0008091840280620E942104D3CF682F41E08D
:1009D00085E792E00C94E602BC01009761F0FC010F
:1009E00001900020E9F73197AF01481B590B85E7CB
:1009F00092E00C94680308954F925F926F927F92F9
:100A0000BF92CF92DF92EF92FF920F931F93CF93FB
:100A1000DF93CDB7DEB7A5970FB6F894DEBF0FBE54
:100A2000CDBF6C01092E000CEE08FF0897FF46C0F1
:100A30008DE20E94E60488279927DC018C199D0924
:100A4000AE09BF098AA39BA3ACA3BDA319A2DE0173
:100A500091967D019AE0492E512C612C712C6AA14E
:100A60007BA18CA19DA1A30192010E94F40A8AA1FD
:100A70009BA1ACA1BDA12AA33BA34CA35DA3605D38
:100A8000F70162937F010A97A105B10540F7C701FD
:100A90000E94EC04A5960FB6F894DEBF0FBECDBF42
:100AA000DF91CF911F910F91FF90EF90DF90CF904A
:100AB000BF907F906F905F904F900895BC2C0D2D4C
:100AC0001E2DDF2C19A2CE0181967C018AE0482ED2
:100AD000512C612C712C6B2D702F812F9D2DA3011A
:100AE00092010E94F40A8B2D902FA12FBD2DB22EC2
:100AF000032F142FD52E605DF70162937F010A97B3
:100B0000A105B10540F7C3CF1F921FB61F92112454
:100B10002F933F938F939F93AF93BF9380917102D5
:100B200090917202A0917302B091740230917002A0
:100B300023E0230F2D3750F50196A11DB11D209301
:100B400070028093710290937202A0937302B0932B
:100B5000740280916C0290916D02A0916E02B0912E
:100B60006F020196A11DB11D80936C0290936D02DE
:100B7000A0936E02B0936F02BF91AF919F918F913E
:100B80003F912F911F901FBE1F90189526E8230FAD
:100B90000296A11DB11DD3CF10928F021092930225
:100BA000109292021092940288E292E090938E0248
:100BB00080938D02E9EAF2E010821482138215829A
:100BC000369682E0E53EF807B9F784E092E090932C
:100BD000F0028093EF0280E092E09093F202809323
:100BE000F10284E08093F3028093F40228E032E083
:100BF0003093EE022093ED022AE030E03093F602CB
:100C00002093F50224EF31E03093F8022093F702AD
:100C10001092FB021092FA021092E9021092EA027C
:100C20001092EB021092EC021092F90210927802EC
:100C3000109277022CE132E0309376022093750215
:100C40009CE0909379029FEF90937A029BE09093BF
:100C50007B0295E090937C0280937D0283E08093F9
:100C60007E0282E080937F021092800210928102C5
:100C700010928202109283021092840281E00C94FE
:100C8000410400D00F92CDB7DEB7789484B582606E
:100C900084BD84B5816084BD85B5826085BD85B520
:100CA000816085BD80916E00816080936E0010929E
:100CB0008100809181008260809381008091810019
:100CC00081608093810080918000816080938000AA
:100CD0008091B10084608093B1008091B000816008
:100CE0008093B00080919100826080939100809108
:100CF0009100816080939100809190008160809349
:100D000090008091A10082608093A1008091A10059
:100D100081608093A1008091A00081608093A000F9
:100D20008091210182608093210180912101816065
:100D30008093210180912001816080932001809126
:100D40007A00846080937A0080917A008260809338
:100D50007A0080917A00816080937A0080917A0095
:100D6000806880937A001092C10082E00E94410462
:100D70000E9439046091600280916A020E942704F7
:100D80008EE292E00E94EC046CE271E080E090E080
:100D90000E949F010E94390480916A0290916B0227
:100DA000019690936B0280936A02409769F4809158
:100DB00060029091610201969093610280936002BB
:100DC00010926B0210926A0280916002909161020F
:100DD000029781F610926B0210926A02812C912C7C
:100DE000540183948BE592E062E0C62ED12C582EFC
:100DF000492E66246394712C60E080916A020E94FF
:100E0000270481E08093F9028FB7F8944091710232
:100E10005091720260917302709174028FBF809141
:100E2000E9029091EA02A091EB02B091EC02481B1A
:100E3000590B6A0B7B0B8091F5029091F602B0E0A2
:100E4000A0E084179507A607B70708F050C11982DC
:100E50008091F3022981281770F4E091EF02F0915C
:100E6000F002E20FF11D62E080810E94DF01398112
:100E70003F5F3983EDCF312C8091F402381608F0B2
:100E800072C0032D10E0E091F102F091F202E00F48
:100E9000F11F61E080810E94DF01E091F102F09199
:100EA000F202E00FF11F60E080810E947402D50120
:100EB000C401032C04C0880F991FAA1FBB1F0A94EA
:100EC000D2F79A8389837C01E094F094212C80915D
:100ED000F302281688F5822D90E09C838B83E091A5
:100EE000EF02F091F0029C01E20FF31F80810E945B
:100EF0003F03EB81FC813496FC83EB83892B71F4F7
:100F0000EE0FFF1FE357FD4F8081918129813A81C8
:100F1000822B932B918380832394D9CF8B819C81C7
:100F2000880F991F83579D4F9C838B83FC01808181
:100F300091818E219F21EECFE091F102F091F2029A
:100F4000E00FF11F61E080810E9474028091F10244
:100F50009091F202080F191F60E0F80180810E9451
:100F6000DF01339489CF2DE832E03A832983F901F8
:100F7000878D90A1892B29F4148E3FEF358F368F02
:100F800011A2369689EC92E08E179F0789F710E040
:100F90008091F302181708F053C000E0E12EF12C05
:100FA000EE0CFF1CF701EB56FD4F7F012091F40280
:100FB000021708F043C0F70140815181002E02C0A2
:100FC000569547950A94E2F7642F6170129F90013D
:100FD0001124200F311DEDE8F2E080E0A58DB68DE3
:100FE0002A173B0709F18F5F36968A30B9F740FF21
:100FF00023C0EDE8F2E090E080E0448D411117C09D
:10100000E091ED02F091EE02E20FF31F408156E015
:10101000589FF001599FF00D1124E357FD4F448F65
:10102000368F258F10A2178E0E94B40305C001963B
:1010300036968A30910509F70F5FB8CF1F5FA8CFAA
:1010400080E0E981FA8191A19111892F29813A816A
:101050002A5F3F4F3A832983295C324091F79FB73B
:10106000F8944091710250917202609173027091F4
:1010700074029FBF4093E9025093EA026093EB022F
:101080007093EC02882399F18091AE02882379F164
:101090008091AC029091AD02019749F58091A9022F
:1010A000813379F1823309F063C00E94E6048091B4
:1010B0006A0290916B02019690936B0280936A0290
:1010C000029749F480916802909169020196909389
:1010D00069028093680220916602309167022115AF
:1010E0003105F1F5D0926702C092660202C01092FB
:1010F000F90280E090E0892B09F47ECE0E94000086
:1011000078CE81E30E94E60480916A0290916B029E
:10111000019690936B0280936A02019749F4809143
:101120006802909169020196909369028093680227
:1011300020916602309167022115310529F47092E1
:10114000670260926602D5CF4AE0429FC001439F8A
:10115000900D112401969093670280936602C9CF87
:101160004AE0429FC001439F900D11240296F3CFA5
:10117000833359F50E94E60480916A0290916B02D4
:10118000019690936B0280936A02039749F48091D1
:1011900068029091690201969093690280936802B7
:1011A00020916602309167022115310531F483E008
:1011B00080936602109267029CCF4AE0429FC00172
:1011C000439F900D11240396C6CF843349F50E94A6
:1011D000E60480916A0290916B02019690936B02F3
:1011E00080936A02049749F48091680290916902A1
:1011F0000196909369028093680220916602309173
:1012000067022115310521F494E090936602D2CF54
:101210004AE0429FC001439F900D112404969BCF4A
:101220008533E9F40E94E60480916A0290916B0292
:10123000019690936B0280936A022091660230912E
:10124000670285E090E02115310509F484CF4AE07A
:10125000429FC001439F900D112405967CCF863399
:10126000E9F40E94E60480916A0290916B02019673
:1012700090936B0280936A0220916602309167021C
:1012800086E090E02115310509F465CF4AE0429FE0
:10129000C001439F900D112406965DCF8733E9F47A
:1012A0000E94E60480916A0290916B0201969093ED
:1012B0006B0280936A02209166023091670287E098
:1012C00090E02115310509F446CF4AE0429FC00164
:1012D000439F900D112407963ECF8833E9F40E9476
:1012E000E60480916A0290916B02019690936B02E2
:1012F00080936A02209166023091670288E090E054
:101300002115310509F427CF4AE0429FC001439FD0
:10131000900D112408961FCF8933E9F40E94E6044A
:1013200080916A0290916B02019690936B02809378
:101330006A02209166023091670289E090E02115EF
:10134000310509F408CF4AE0429FC001439F900D48
:101350001124099600CF8033E9F40E94E6048091BD
:101360006A0290916B02019690936B0280936A02DD
:101370008091660290916702009709F4BACE4AE024
:10138000489F9001499F300D1124309367022093AC
:101390006602AFCE833289F580916802909169022E
:1013A00061E0049721F580E00E9427048AE392E03F
:1013B0000E94EC041092650210926402109267027F
:1013C0001092660260ED77E080E090E00E949F015D
:1013D00010926902109268020E94390460E080E075
:1013E0000E94270410926B0210926A0282CE80E063
:1013F0000E9427048BE492E0DBCF8F32E1F40E945D
:10140000E60480916A0290916B02019690936B02C0
:1014100080936A02809166029091670290936502C0
:1014200080936402109267021092660270926302C7
:10143000609262025ECE8A32E1F40E94E6048091FC
:101440006A0290916B02019690936B0280936A02FC
:101450008091660290916702909365028093640286
:101460001092670210926602D0926302C0926202EA
:1014700040CE8D32E9F40E94E60480916A02909198
:101480006B02019690936B0280936A0280916602D0
:1014900090916702909365028093640210926702B4
:1014A00010926602E3E0E09362021092630221CEA2
:1014B0008B32D9F40E94E60480916A0290916B020B
:1014C000019690936B0280936A02809166029091DC
:1014D00067029093650280936402109267021092F3
:1014E0006602F4E0F0936202E0CF8D3309F001CEA2
:1014F000609166027091670280916202909163022E
:101500008130910559F480916402909165020E94A6
:10151000E00A709367026093660212C08230910500
:10152000E1F52091640230916502269FC001279F5A
:10153000900D369F900D1124909367028093660260
:101540008CE592E00E94EC04809166029091670223
:101550000E94FC0461E080E00E9427048091660202
:10156000909167020E94FC0410926B0210926A0232
:101570001092670210926602109265021092640245
:10158000509262024092630260ED77E080E090E06A
:101590000E949F010E943904ACCD8330910539F43B
:1015A0008091640290916502861B970BC5CF0497CA
:1015B00039F68091640290916502680F791FA9CF76
:1015C00097FB072E16F4009407D077FD09D00E94F0
:1015D0001E0B07FC05D03EF4909581959F4F089512
:1015E000709561957F4F0895A1E21A2EAA1BBB1B2F
:1015F000FD010DC0AA1FBB1FEE1FFF1FA217B307DF
:10160000E407F50720F0A21BB30BE40BF50B661FF4
:10161000771F881F991F1A9469F7609570958095B8
:1016200090959B01AC01BD01CF010895EE0FFF1F06
:10163000881F8BBF0790F691E02D1994AA1BBB1B46
:1016400051E107C0AA1FBB1FA617B70710F0A61BC2
:10165000B70B881F991F5A95A9F780959095BC01E3
:10166000CD010895F894FFCF39023D022B023102DB
:1016700035026B02400246024A02500254025802EE
:0C1680005E0262026B0266026C027002E5
:10168C001617181D191A1B1C3132332F3435362AF4
:10169C003738392D23303D2B00000000350368030B
:1016AC0068016B01000000001B023B036503416DE8
:1016BC0069722041736B61726900636F727265634A
:1016CC00742070617373776F7264002077726F6E21
:1016DC00672070617373776F72642000203D000087
:00000001FF
